{
  "_format": "hh-sol-artifact-1",
  "contractName": "EpicNFT",
  "sourceName": "contracts/EpicNFT.sol",
  "abi": [
    {
      "inputs": [],
      "stateMutability": "nonpayable",
      "type": "constructor"
    },
    {
      "anonymous": false,
      "inputs": [
        {
          "indexed": true,
          "internalType": "address",
          "name": "owner",
          "type": "address"
        },
        {
          "indexed": true,
          "internalType": "address",
          "name": "approved",
          "type": "address"
        },
        {
          "indexed": true,
          "internalType": "uint256",
          "name": "tokenId",
          "type": "uint256"
        }
      ],
      "name": "Approval",
      "type": "event"
    },
    {
      "anonymous": false,
      "inputs": [
        {
          "indexed": true,
          "internalType": "address",
          "name": "owner",
          "type": "address"
        },
        {
          "indexed": true,
          "internalType": "address",
          "name": "operator",
          "type": "address"
        },
        {
          "indexed": false,
          "internalType": "bool",
          "name": "approved",
          "type": "bool"
        }
      ],
      "name": "ApprovalForAll",
      "type": "event"
    },
    {
      "anonymous": false,
      "inputs": [
        {
          "indexed": false,
          "internalType": "address",
          "name": "sender",
          "type": "address"
        },
        {
          "indexed": false,
          "internalType": "uint256",
          "name": "tokenId",
          "type": "uint256"
        }
      ],
      "name": "NewEpicNFTMinted",
      "type": "event"
    },
    {
      "anonymous": false,
      "inputs": [
        {
          "indexed": true,
          "internalType": "address",
          "name": "from",
          "type": "address"
        },
        {
          "indexed": true,
          "internalType": "address",
          "name": "to",
          "type": "address"
        },
        {
          "indexed": true,
          "internalType": "uint256",
          "name": "tokenId",
          "type": "uint256"
        }
      ],
      "name": "Transfer",
      "type": "event"
    },
    {
      "inputs": [
        {
          "internalType": "address",
          "name": "to",
          "type": "address"
        },
        {
          "internalType": "uint256",
          "name": "tokenId",
          "type": "uint256"
        }
      ],
      "name": "approve",
      "outputs": [],
      "stateMutability": "nonpayable",
      "type": "function"
    },
    {
      "inputs": [
        {
          "internalType": "address",
          "name": "owner",
          "type": "address"
        }
      ],
      "name": "balanceOf",
      "outputs": [
        {
          "internalType": "uint256",
          "name": "",
          "type": "uint256"
        }
      ],
      "stateMutability": "view",
      "type": "function"
    },
    {
      "inputs": [
        {
          "internalType": "uint256",
          "name": "tokenId",
          "type": "uint256"
        }
      ],
      "name": "getApproved",
      "outputs": [
        {
          "internalType": "address",
          "name": "",
          "type": "address"
        }
      ],
      "stateMutability": "view",
      "type": "function"
    },
    {
      "inputs": [
        {
          "internalType": "address",
          "name": "owner",
          "type": "address"
        },
        {
          "internalType": "address",
          "name": "operator",
          "type": "address"
        }
      ],
      "name": "isApprovedForAll",
      "outputs": [
        {
          "internalType": "bool",
          "name": "",
          "type": "bool"
        }
      ],
      "stateMutability": "view",
      "type": "function"
    },
    {
      "inputs": [
        {
          "internalType": "string",
          "name": "jsonUrl",
          "type": "string"
        }
      ],
      "name": "makeAnEpicNFT",
      "outputs": [],
      "stateMutability": "nonpayable",
      "type": "function"
    },
    {
      "inputs": [],
      "name": "name",
      "outputs": [
        {
          "internalType": "string",
          "name": "",
          "type": "string"
        }
      ],
      "stateMutability": "view",
      "type": "function"
    },
    {
      "inputs": [
        {
          "internalType": "uint256",
          "name": "tokenId",
          "type": "uint256"
        }
      ],
      "name": "ownerOf",
      "outputs": [
        {
          "internalType": "address",
          "name": "",
          "type": "address"
        }
      ],
      "stateMutability": "view",
      "type": "function"
    },
    {
      "inputs": [
        {
          "internalType": "address",
          "name": "from",
          "type": "address"
        },
        {
          "internalType": "address",
          "name": "to",
          "type": "address"
        },
        {
          "internalType": "uint256",
          "name": "tokenId",
          "type": "uint256"
        }
      ],
      "name": "safeTransferFrom",
      "outputs": [],
      "stateMutability": "nonpayable",
      "type": "function"
    },
    {
      "inputs": [
        {
          "internalType": "address",
          "name": "from",
          "type": "address"
        },
        {
          "internalType": "address",
          "name": "to",
          "type": "address"
        },
        {
          "internalType": "uint256",
          "name": "tokenId",
          "type": "uint256"
        },
        {
          "internalType": "bytes",
          "name": "_data",
          "type": "bytes"
        }
      ],
      "name": "safeTransferFrom",
      "outputs": [],
      "stateMutability": "nonpayable",
      "type": "function"
    },
    {
      "inputs": [
        {
          "internalType": "address",
          "name": "operator",
          "type": "address"
        },
        {
          "internalType": "bool",
          "name": "approved",
          "type": "bool"
        }
      ],
      "name": "setApprovalForAll",
      "outputs": [],
      "stateMutability": "nonpayable",
      "type": "function"
    },
    {
      "inputs": [
        {
          "internalType": "bytes4",
          "name": "interfaceId",
          "type": "bytes4"
        }
      ],
      "name": "supportsInterface",
      "outputs": [
        {
          "internalType": "bool",
          "name": "",
          "type": "bool"
        }
      ],
      "stateMutability": "view",
      "type": "function"
    },
    {
      "inputs": [],
      "name": "symbol",
      "outputs": [
        {
          "internalType": "string",
          "name": "",
          "type": "string"
        }
      ],
      "stateMutability": "view",
      "type": "function"
    },
    {
      "inputs": [
        {
          "internalType": "uint256",
          "name": "tokenId",
          "type": "uint256"
        }
      ],
      "name": "tokenURI",
      "outputs": [
        {
          "internalType": "string",
          "name": "",
          "type": "string"
        }
      ],
      "stateMutability": "view",
      "type": "function"
    },
    {
      "inputs": [
        {
          "internalType": "address",
          "name": "from",
          "type": "address"
        },
        {
          "internalType": "address",
          "name": "to",
          "type": "address"
        },
        {
          "internalType": "uint256",
          "name": "tokenId",
          "type": "uint256"
        }
      ],
      "name": "transferFrom",
      "outputs": [],
      "stateMutability": "nonpayable",
      "type": "function"
    }
  ],
  "bytecode": "0x60806040523480156200001157600080fd5b506040518060400160405280600881526020017f436f646550756e6b0000000000000000000000000000000000000000000000008152506040518060400160405280600481526020017f4344504e00000000000000000000000000000000000000000000000000000000815250816000908051906020019062000096929190620001cf565b508060019080519060200190620000af929190620001cf565b505050620000fd6040518060400160405280601e81526020017f54686973206973206d79204e465420636f6e74726163742e2057686f612100008152506200010360201b62000b6a1760201c565b620003ac565b620001a3816040516024016200011a9190620002c0565b6040516020818303038152906040527f41304fac000000000000000000000000000000000000000000000000000000007bffffffffffffffffffffffffffffffffffffffffffffffffffffffff19166020820180517bffffffffffffffffffffffffffffffffffffffffffffffffffffffff8381831617835250505050620001a660201b60201c565b50565b60008151905060006a636f6e736f6c652e6c6f679050602083016000808483855afa5050505050565b828054620001dd9062000336565b90600052602060002090601f0160209004810192826200020157600085556200024d565b82601f106200021c57805160ff19168380011785556200024d565b828001600101855582156200024d579182015b828111156200024c5782518255916020019190600101906200022f565b5b5090506200025c919062000260565b5090565b5b808211156200027b57600081600090555060010162000261565b5090565b60006200028c82620002e4565b620002988185620002ef565b9350620002aa81856020860162000300565b620002b5816200039b565b840191505092915050565b60006020820190508181036000830152620002dc81846200027f565b905092915050565b600081519050919050565b600082825260208201905092915050565b60005b838110156200032057808201518184015260208101905062000303565b8381111562000330576000848401525b50505050565b600060028204905060018216806200034f57607f821691505b602082108114156200036657620003656200036c565b5b50919050565b7f4e487b7100000000000000000000000000000000000000000000000000000000600052602260045260246000fd5b6000601f19601f8301169050919050565b612d1a80620003bc6000396000f3fe608060405234801561001057600080fd5b50600436106100ea5760003560e01c80636352211e1161008c578063a22cb46511610066578063a22cb4651461025b578063b88d4fde14610277578063c87b56dd14610293578063e985e9c5146102c3576100ea565b80636352211e146101dd57806370a082311461020d57806395d89b411461023d576100ea565b8063095ea7b3116100c8578063095ea7b31461016d57806323b872dd1461018957806339fa8daf146101a557806342842e0e146101c1576100ea565b806301ffc9a7146100ef57806306fdde031461011f578063081812fc1461013d575b600080fd5b61010960048036038101906101049190611de1565b6102f3565b604051610116919061260f565b60405180910390f35b6101276103d5565b604051610134919061262a565b60405180910390f35b61015760048036038101906101529190611e74565b610467565b604051610164919061257f565b60405180910390f35b61018760048036038101906101829190611da5565b6104ec565b005b6101a3600480360381019061019e9190611c9f565b610604565b005b6101bf60048036038101906101ba9190611e33565b610664565b005b6101db60048036038101906101d69190611c9f565b6106f0565b005b6101f760048036038101906101f29190611e74565b610710565b604051610204919061257f565b60405180910390f35b61022760048036038101906102229190611c3a565b6107c2565b604051610234919061288a565b60405180910390f35b61024561087a565b604051610252919061262a565b60405180910390f35b61027560048036038101906102709190611d69565b61090c565b005b610291600480360381019061028c9190611cee565b610922565b005b6102ad60048036038101906102a89190611e74565b610984565b6040516102ba919061262a565b60405180910390f35b6102dd60048036038101906102d89190611c63565b610ad6565b6040516102ea919061260f565b60405180910390f35b60007f80ac58cd000000000000000000000000000000000000000000000000000000007bffffffffffffffffffffffffffffffffffffffffffffffffffffffff1916827bffffffffffffffffffffffffffffffffffffffffffffffffffffffff191614806103be57507f5b5e139f000000000000000000000000000000000000000000000000000000007bffffffffffffffffffffffffffffffffffffffffffffffffffffffff1916827bffffffffffffffffffffffffffffffffffffffffffffffffffffffff1916145b806103ce57506103cd82610c03565b5b9050919050565b6060600080546103e490612aea565b80601f016020809104026020016040519081016040528092919081815260200182805461041090612aea565b801561045d5780601f106104325761010080835404028352916020019161045d565b820191906000526020600020905b81548152906001019060200180831161044057829003601f168201915b5050505050905090565b600061047282610c6d565b6104b1576040517f08c379a00000000000000000000000000000000000000000000000000000000081526004016104a8906127ea565b60405180910390fd5b6004600083815260200190815260200160002060009054906101000a900473ffffffffffffffffffffffffffffffffffffffff169050919050565b60006104f782610710565b90508073ffffffffffffffffffffffffffffffffffffffff168373ffffffffffffffffffffffffffffffffffffffff161415610568576040517f08c379a000000000000000000000000000000000000000000000000000000000815260040161055f9061284a565b60405180910390fd5b8073ffffffffffffffffffffffffffffffffffffffff16610587610cd9565b73ffffffffffffffffffffffffffffffffffffffff1614806105b657506105b5816105b0610cd9565b610ad6565b5b6105f5576040517f08c379a00000000000000000000000000000000000000000000000000000000081526004016105ec9061272a565b60405180910390fd5b6105ff8383610ce1565b505050565b61061561060f610cd9565b82610d9a565b610654576040517f08c379a000000000000000000000000000000000000000000000000000000000815260040161064b9061286a565b60405180910390fd5b61065f838383610e78565b505050565b600061067060076110d4565b905061067c33826110e2565b6106868183611100565b6106a9604051806060016040528060258152602001612cc0602591398233611174565b7febb98688741ffa4c7589bf325de30cf7becb63de567842e1ccdb6cb949fdc82c33826040516106da9291906125e6565b60405180910390a16106ec6007611213565b5050565b61070b83838360405180602001604052806000815250610922565b505050565b6000806002600084815260200190815260200160002060009054906101000a900473ffffffffffffffffffffffffffffffffffffffff169050600073ffffffffffffffffffffffffffffffffffffffff168173ffffffffffffffffffffffffffffffffffffffff1614156107b9576040517f08c379a00000000000000000000000000000000000000000000000000000000081526004016107b09061276a565b60405180910390fd5b80915050919050565b60008073ffffffffffffffffffffffffffffffffffffffff168273ffffffffffffffffffffffffffffffffffffffff161415610833576040517f08c379a000000000000000000000000000000000000000000000000000000000815260040161082a9061274a565b60405180910390fd5b600360008373ffffffffffffffffffffffffffffffffffffffff1673ffffffffffffffffffffffffffffffffffffffff168152602001908152602001600020549050919050565b60606001805461088990612aea565b80601f01602080910402602001604051908101604052809291908181526020018280546108b590612aea565b80156109025780601f106108d757610100808354040283529160200191610902565b820191906000526020600020905b8154815290600101906020018083116108e557829003601f168201915b5050505050905090565b61091e610917610cd9565b8383611229565b5050565b61093361092d610cd9565b83610d9a565b610972576040517f08c379a00000000000000000000000000000000000000000000000000000000081526004016109699061286a565b60405180910390fd5b61097e84848484611396565b50505050565b606061098f82610c6d565b6109ce576040517f08c379a00000000000000000000000000000000000000000000000000000000081526004016109c5906127ca565b60405180910390fd5b60006006600084815260200190815260200160002080546109ee90612aea565b80601f0160208091040260200160405190810160405280929190818152602001828054610a1a90612aea565b8015610a675780601f10610a3c57610100808354040283529160200191610a67565b820191906000526020600020905b815481529060010190602001808311610a4a57829003601f168201915b505050505090506000610a786113f2565b9050600081511415610a8e578192505050610ad1565b600082511115610ac3578082604051602001610aab92919061255b565b60405160208183030381529060405292505050610ad1565b610acc84611409565b925050505b919050565b6000600560008473ffffffffffffffffffffffffffffffffffffffff1673ffffffffffffffffffffffffffffffffffffffff16815260200190815260200160002060008373ffffffffffffffffffffffffffffffffffffffff1673ffffffffffffffffffffffffffffffffffffffff16815260200190815260200160002060009054906101000a900460ff16905092915050565b610c0081604051602401610b7e919061262a565b6040516020818303038152906040527f41304fac000000000000000000000000000000000000000000000000000000007bffffffffffffffffffffffffffffffffffffffffffffffffffffffff19166020820180517bffffffffffffffffffffffffffffffffffffffffffffffffffffffff83818316178352505050506114b0565b50565b60007f01ffc9a7000000000000000000000000000000000000000000000000000000007bffffffffffffffffffffffffffffffffffffffffffffffffffffffff1916827bffffffffffffffffffffffffffffffffffffffffffffffffffffffff1916149050919050565b60008073ffffffffffffffffffffffffffffffffffffffff166002600084815260200190815260200160002060009054906101000a900473ffffffffffffffffffffffffffffffffffffffff1673ffffffffffffffffffffffffffffffffffffffff1614159050919050565b600033905090565b816004600083815260200190815260200160002060006101000a81548173ffffffffffffffffffffffffffffffffffffffff021916908373ffffffffffffffffffffffffffffffffffffffff160217905550808273ffffffffffffffffffffffffffffffffffffffff16610d5483610710565b73ffffffffffffffffffffffffffffffffffffffff167f8c5be1e5ebec7d5bd14f71427d1e84f3dd0314c0f7b2291e5b200ac8c7c3b92560405160405180910390a45050565b6000610da582610c6d565b610de4576040517f08c379a0000000000000000000000000000000000000000000000000000000008152600401610ddb9061270a565b60405180910390fd5b6000610def83610710565b90508073ffffffffffffffffffffffffffffffffffffffff168473ffffffffffffffffffffffffffffffffffffffff161480610e5e57508373ffffffffffffffffffffffffffffffffffffffff16610e4684610467565b73ffffffffffffffffffffffffffffffffffffffff16145b80610e6f5750610e6e8185610ad6565b5b91505092915050565b8273ffffffffffffffffffffffffffffffffffffffff16610e9882610710565b73ffffffffffffffffffffffffffffffffffffffff1614610eee576040517f08c379a0000000000000000000000000000000000000000000000000000000008152600401610ee59061280a565b60405180910390fd5b600073ffffffffffffffffffffffffffffffffffffffff168273ffffffffffffffffffffffffffffffffffffffff161415610f5e576040517f08c379a0000000000000000000000000000000000000000000000000000000008152600401610f55906126ca565b60405180910390fd5b610f698383836114d9565b610f74600082610ce1565b6001600360008573ffffffffffffffffffffffffffffffffffffffff1673ffffffffffffffffffffffffffffffffffffffff1681526020019081526020016000206000828254610fc49190612a00565b925050819055506001600360008473ffffffffffffffffffffffffffffffffffffffff1673ffffffffffffffffffffffffffffffffffffffff168152602001908152602001600020600082825461101b9190612979565b92505081905550816002600083815260200190815260200160002060006101000a81548173ffffffffffffffffffffffffffffffffffffffff021916908373ffffffffffffffffffffffffffffffffffffffff160217905550808273ffffffffffffffffffffffffffffffffffffffff168473ffffffffffffffffffffffffffffffffffffffff167fddf252ad1be2c89b69c2b068fc378daa952ba7f163c4a11628f55a4df523b3ef60405160405180910390a4505050565b600081600001549050919050565b6110fc8282604051806020016040528060008152506114de565b5050565b61110982610c6d565b611148576040517f08c379a000000000000000000000000000000000000000000000000000000000815260040161113f9061278a565b60405180910390fd5b8060066000848152602001908152602001600020908051906020019061116f929190611a5e565b505050565b61120e83838360405160240161118c9392919061264c565b6040516020818303038152906040527fe3849f79000000000000000000000000000000000000000000000000000000007bffffffffffffffffffffffffffffffffffffffffffffffffffffffff19166020820180517bffffffffffffffffffffffffffffffffffffffffffffffffffffffff83818316178352505050506114b0565b505050565b6001816000016000828254019250508190555050565b8173ffffffffffffffffffffffffffffffffffffffff168373ffffffffffffffffffffffffffffffffffffffff161415611298576040517f08c379a000000000000000000000000000000000000000000000000000000000815260040161128f906126ea565b60405180910390fd5b80600560008573ffffffffffffffffffffffffffffffffffffffff1673ffffffffffffffffffffffffffffffffffffffff16815260200190815260200160002060008473ffffffffffffffffffffffffffffffffffffffff1673ffffffffffffffffffffffffffffffffffffffff16815260200190815260200160002060006101000a81548160ff0219169083151502179055508173ffffffffffffffffffffffffffffffffffffffff168373ffffffffffffffffffffffffffffffffffffffff167f17307eab39ab6107e8899845ad3d59bd9653f200f220920489ca2b5937696c3183604051611389919061260f565b60405180910390a3505050565b6113a1848484610e78565b6113ad84848484611539565b6113ec576040517f08c379a00000000000000000000000000000000000000000000000000000000081526004016113e39061268a565b60405180910390fd5b50505050565b606060405180602001604052806000815250905090565b606061141482610c6d565b611453576040517f08c379a000000000000000000000000000000000000000000000000000000000815260040161144a9061282a565b60405180910390fd5b600061145d6113f2565b9050600081511161147d57604051806020016040528060008152506114a8565b80611487846116d0565b60405160200161149892919061255b565b6040516020818303038152906040525b915050919050565b60008151905060006a636f6e736f6c652e6c6f679050602083016000808483855afa5050505050565b505050565b6114e8838361187d565b6114f56000848484611539565b611534576040517f08c379a000000000000000000000000000000000000000000000000000000000815260040161152b9061268a565b60405180910390fd5b505050565b600061155a8473ffffffffffffffffffffffffffffffffffffffff16611a4b565b156116c3578373ffffffffffffffffffffffffffffffffffffffff1663150b7a02611583610cd9565b8786866040518563ffffffff1660e01b81526004016115a5949392919061259a565b602060405180830381600087803b1580156115bf57600080fd5b505af19250505080156115f057506040513d601f19601f820116820180604052508101906115ed9190611e0a565b60015b611673573d8060008114611620576040519150601f19603f3d011682016040523d82523d6000602084013e611625565b606091505b5060008151141561166b576040517f08c379a00000000000000000000000000000000000000000000000000000000081526004016116629061268a565b60405180910390fd5b805181602001fd5b63150b7a0260e01b7bffffffffffffffffffffffffffffffffffffffffffffffffffffffff1916817bffffffffffffffffffffffffffffffffffffffffffffffffffffffff1916149150506116c8565b600190505b949350505050565b60606000821415611718576040518060400160405280600181526020017f30000000000000000000000000000000000000000000000000000000000000008152509050611878565b600082905060005b6000821461174a57808061173390612b1c565b915050600a8261174391906129cf565b9150611720565b60008167ffffffffffffffff81111561178c577f4e487b7100000000000000000000000000000000000000000000000000000000600052604160045260246000fd5b6040519080825280601f01601f1916602001820160405280156117be5781602001600182028036833780820191505090505b5090505b60008514611871576001826117d79190612a00565b9150600a856117e69190612b65565b60306117f29190612979565b60f81b81838151811061182e577f4e487b7100000000000000000000000000000000000000000000000000000000600052603260045260246000fd5b60200101907effffffffffffffffffffffffffffffffffffffffffffffffffffffffffffff1916908160001a905350600a8561186a91906129cf565b94506117c2565b8093505050505b919050565b600073ffffffffffffffffffffffffffffffffffffffff168273ffffffffffffffffffffffffffffffffffffffff1614156118ed576040517f08c379a00000000000000000000000000000000000000000000000000000000081526004016118e4906127aa565b60405180910390fd5b6118f681610c6d565b15611936576040517f08c379a000000000000000000000000000000000000000000000000000000000815260040161192d906126aa565b60405180910390fd5b611942600083836114d9565b6001600360008473ffffffffffffffffffffffffffffffffffffffff1673ffffffffffffffffffffffffffffffffffffffff16815260200190815260200160002060008282546119929190612979565b92505081905550816002600083815260200190815260200160002060006101000a81548173ffffffffffffffffffffffffffffffffffffffff021916908373ffffffffffffffffffffffffffffffffffffffff160217905550808273ffffffffffffffffffffffffffffffffffffffff16600073ffffffffffffffffffffffffffffffffffffffff167fddf252ad1be2c89b69c2b068fc378daa952ba7f163c4a11628f55a4df523b3ef60405160405180910390a45050565b600080823b905060008111915050919050565b828054611a6a90612aea565b90600052602060002090601f016020900481019282611a8c5760008555611ad3565b82601f10611aa557805160ff1916838001178555611ad3565b82800160010185558215611ad3579182015b82811115611ad2578251825591602001919060010190611ab7565b5b509050611ae09190611ae4565b5090565b5b80821115611afd576000816000905550600101611ae5565b5090565b6000611b14611b0f846128d6565b6128a5565b905082815260208101848484011115611b2c57600080fd5b611b37848285612aa8565b509392505050565b6000611b52611b4d84612906565b6128a5565b905082815260208101848484011115611b6a57600080fd5b611b75848285612aa8565b509392505050565b600081359050611b8c81612c63565b92915050565b600081359050611ba181612c7a565b92915050565b600081359050611bb681612c91565b92915050565b600081519050611bcb81612c91565b92915050565b600082601f830112611be257600080fd5b8135611bf2848260208601611b01565b91505092915050565b600082601f830112611c0c57600080fd5b8135611c1c848260208601611b3f565b91505092915050565b600081359050611c3481612ca8565b92915050565b600060208284031215611c4c57600080fd5b6000611c5a84828501611b7d565b91505092915050565b60008060408385031215611c7657600080fd5b6000611c8485828601611b7d565b9250506020611c9585828601611b7d565b9150509250929050565b600080600060608486031215611cb457600080fd5b6000611cc286828701611b7d565b9350506020611cd386828701611b7d565b9250506040611ce486828701611c25565b9150509250925092565b60008060008060808587031215611d0457600080fd5b6000611d1287828801611b7d565b9450506020611d2387828801611b7d565b9350506040611d3487828801611c25565b925050606085013567ffffffffffffffff811115611d5157600080fd5b611d5d87828801611bd1565b91505092959194509250565b60008060408385031215611d7c57600080fd5b6000611d8a85828601611b7d565b9250506020611d9b85828601611b92565b9150509250929050565b60008060408385031215611db857600080fd5b6000611dc685828601611b7d565b9250506020611dd785828601611c25565b9150509250929050565b600060208284031215611df357600080fd5b6000611e0184828501611ba7565b91505092915050565b600060208284031215611e1c57600080fd5b6000611e2a84828501611bbc565b91505092915050565b600060208284031215611e4557600080fd5b600082013567ffffffffffffffff811115611e5f57600080fd5b611e6b84828501611bfb565b91505092915050565b600060208284031215611e8657600080fd5b6000611e9484828501611c25565b91505092915050565b611ea681612a34565b82525050565b611eb581612a46565b82525050565b6000611ec682612936565b611ed0818561294c565b9350611ee0818560208601612ab7565b611ee981612c52565b840191505092915050565b6000611eff82612941565b611f09818561295d565b9350611f19818560208601612ab7565b611f2281612c52565b840191505092915050565b6000611f3882612941565b611f42818561296e565b9350611f52818560208601612ab7565b80840191505092915050565b6000611f6b60328361295d565b91507f4552433732313a207472616e7366657220746f206e6f6e20455243373231526560008301527f63656976657220696d706c656d656e74657200000000000000000000000000006020830152604082019050919050565b6000611fd1601c8361295d565b91507f4552433732313a20746f6b656e20616c7265616479206d696e746564000000006000830152602082019050919050565b600061201160248361295d565b91507f4552433732313a207472616e7366657220746f20746865207a65726f2061646460008301527f72657373000000000000000000000000000000000000000000000000000000006020830152604082019050919050565b600061207760198361295d565b91507f4552433732313a20617070726f766520746f2063616c6c6572000000000000006000830152602082019050919050565b60006120b7602c8361295d565b91507f4552433732313a206f70657261746f7220717565727920666f72206e6f6e657860008301527f697374656e7420746f6b656e00000000000000000000000000000000000000006020830152604082019050919050565b600061211d60388361295d565b91507f4552433732313a20617070726f76652063616c6c6572206973206e6f74206f7760008301527f6e6572206e6f7220617070726f76656420666f7220616c6c00000000000000006020830152604082019050919050565b6000612183602a8361295d565b91507f4552433732313a2062616c616e636520717565727920666f7220746865207a6560008301527f726f2061646472657373000000000000000000000000000000000000000000006020830152604082019050919050565b60006121e960298361295d565b91507f4552433732313a206f776e657220717565727920666f72206e6f6e657869737460008301527f656e7420746f6b656e00000000000000000000000000000000000000000000006020830152604082019050919050565b600061224f602e8361295d565b91507f45524337323155524953746f726167653a2055524920736574206f66206e6f6e60008301527f6578697374656e7420746f6b656e0000000000000000000000000000000000006020830152604082019050919050565b60006122b560208361295d565b91507f4552433732313a206d696e7420746f20746865207a65726f20616464726573736000830152602082019050919050565b60006122f560318361295d565b91507f45524337323155524953746f726167653a2055524920717565727920666f722060008301527f6e6f6e6578697374656e7420746f6b656e0000000000000000000000000000006020830152604082019050919050565b600061235b602c8361295d565b91507f4552433732313a20617070726f76656420717565727920666f72206e6f6e657860008301527f697374656e7420746f6b656e00000000000000000000000000000000000000006020830152604082019050919050565b60006123c160298361295d565b91507f4552433732313a207472616e73666572206f6620746f6b656e2074686174206960008301527f73206e6f74206f776e00000000000000000000000000000000000000000000006020830152604082019050919050565b6000612427602f8361295d565b91507f4552433732314d657461646174613a2055524920717565727920666f72206e6f60008301527f6e6578697374656e7420746f6b656e00000000000000000000000000000000006020830152604082019050919050565b600061248d60218361295d565b91507f4552433732313a20617070726f76616c20746f2063757272656e74206f776e6560008301527f72000000000000000000000000000000000000000000000000000000000000006020830152604082019050919050565b60006124f360318361295d565b91507f4552433732313a207472616e736665722063616c6c6572206973206e6f74206f60008301527f776e6572206e6f7220617070726f7665640000000000000000000000000000006020830152604082019050919050565b61255581612a9e565b82525050565b60006125678285611f2d565b91506125738284611f2d565b91508190509392505050565b60006020820190506125946000830184611e9d565b92915050565b60006080820190506125af6000830187611e9d565b6125bc6020830186611e9d565b6125c9604083018561254c565b81810360608301526125db8184611ebb565b905095945050505050565b60006040820190506125fb6000830185611e9d565b612608602083018461254c565b9392505050565b60006020820190506126246000830184611eac565b92915050565b600060208201905081810360008301526126448184611ef4565b905092915050565b600060608201905081810360008301526126668186611ef4565b9050612675602083018561254c565b6126826040830184611e9d565b949350505050565b600060208201905081810360008301526126a381611f5e565b9050919050565b600060208201905081810360008301526126c381611fc4565b9050919050565b600060208201905081810360008301526126e381612004565b9050919050565b600060208201905081810360008301526127038161206a565b9050919050565b60006020820190508181036000830152612723816120aa565b9050919050565b6000602082019050818103600083015261274381612110565b9050919050565b6000602082019050818103600083015261276381612176565b9050919050565b60006020820190508181036000830152612783816121dc565b9050919050565b600060208201905081810360008301526127a381612242565b9050919050565b600060208201905081810360008301526127c3816122a8565b9050919050565b600060208201905081810360008301526127e3816122e8565b9050919050565b600060208201905081810360008301526128038161234e565b9050919050565b60006020820190508181036000830152612823816123b4565b9050919050565b600060208201905081810360008301526128438161241a565b9050919050565b6000602082019050818103600083015261286381612480565b9050919050565b60006020820190508181036000830152612883816124e6565b9050919050565b600060208201905061289f600083018461254c565b92915050565b6000604051905081810181811067ffffffffffffffff821117156128cc576128cb612c23565b5b8060405250919050565b600067ffffffffffffffff8211156128f1576128f0612c23565b5b601f19601f8301169050602081019050919050565b600067ffffffffffffffff82111561292157612920612c23565b5b601f19601f8301169050602081019050919050565b600081519050919050565b600081519050919050565b600082825260208201905092915050565b600082825260208201905092915050565b600081905092915050565b600061298482612a9e565b915061298f83612a9e565b9250827fffffffffffffffffffffffffffffffffffffffffffffffffffffffffffffffff038211156129c4576129c3612b96565b5b828201905092915050565b60006129da82612a9e565b91506129e583612a9e565b9250826129f5576129f4612bc5565b5b828204905092915050565b6000612a0b82612a9e565b9150612a1683612a9e565b925082821015612a2957612a28612b96565b5b828203905092915050565b6000612a3f82612a7e565b9050919050565b60008115159050919050565b60007fffffffff0000000000000000000000000000000000000000000000000000000082169050919050565b600073ffffffffffffffffffffffffffffffffffffffff82169050919050565b6000819050919050565b82818337600083830152505050565b60005b83811015612ad5578082015181840152602081019050612aba565b83811115612ae4576000848401525b50505050565b60006002820490506001821680612b0257607f821691505b60208210811415612b1657612b15612bf4565b5b50919050565b6000612b2782612a9e565b91507fffffffffffffffffffffffffffffffffffffffffffffffffffffffffffffffff821415612b5a57612b59612b96565b5b600182019050919050565b6000612b7082612a9e565b9150612b7b83612a9e565b925082612b8b57612b8a612bc5565b5b828206905092915050565b7f4e487b7100000000000000000000000000000000000000000000000000000000600052601160045260246000fd5b7f4e487b7100000000000000000000000000000000000000000000000000000000600052601260045260246000fd5b7f4e487b7100000000000000000000000000000000000000000000000000000000600052602260045260246000fd5b7f4e487b7100000000000000000000000000000000000000000000000000000000600052604160045260246000fd5b6000601f19601f8301169050919050565b612c6c81612a34565b8114612c7757600080fd5b50565b612c8381612a46565b8114612c8e57600080fd5b50565b612c9a81612a52565b8114612ca557600080fd5b50565b612cb181612a9e565b8114612cbc57600080fd5b5056fe416e204e465420772f20494420257320686173206265656e206d696e74656420746f202573a26469706673582212209c18d894bba5d61a229b1615a3d2356f7d88c2ed8b61dc552283e664f615ea1a64736f6c63430008000033",
  "linkReferences": {},
  "deployedLinkReferences": {}
}